:100286003F065B4F666D7D077F6FFEFCFDF9FBF356
:0A029600F7F6F6F7F3FBF9FDFCFEA6
:0C000E00022C0000022900000223000068
:08026000EB93F5907F057E0091
:10026800D3EF9400EE940040147D6E7C00ED1D7079
:0D027800011CED4C70F7EF1F70E61E80E3D7
:010285002256
:03000B00020006EA
:030006000522329E
:03001B0002017C63
:10017C00C0E0C0D0E524B4B00BE523B4360675233B
:10018C0000752400758DFC758B18052DE52D7002FE
:10019C00052C0524E52470020523E52BB52D06E47A
:1001AC00B52C02C2B1E52D640A452C7006D2B1F50E
:0801BC002CF52DD0D0D0E0326B
:030003000201C433
:0901C400C0E0C0D075D000C000FD
:1001CD00300029E522C3943F500AE522C394204014
:1001DD0003752100742E2521F8A622752200052114
:1001ED00E521B4210CD2017521008005752200D2C4
:0101FD000001
:0701FE00D000D0D0D0E032A8
:0A02B300E4F58CF58AD2A9D28C2262
:1002A000758912758DFC758B18E4F52BC2B1D2AB34
:0302B000C28E22D9
:0702BD00D288D2A8D2AF22C3
:10012900E52724F8604424FC601C24F4602424BAE4
:10013900602C2419703A752B02D28ED2B1900287A5
:10014900E493F580802A900287E493F580752B0269
:10015900801E900288E493F580752B058012900229
:1001690089E493F580E4F52B8006632AFF6329FF70
:03017900C202229D
:100205007E01E4FD7C01742E2EF8E6D394074003AD
:10021500430780ECC394085004EFC313FF0E0CBCD6
:1002250009E474252DF8A607E4FF0DBD04D6D20216
:0102350022A6
:1000AA00E4FBFAE52A45296075C3E5249488E5232B
:1000BA00941350119002981202600BBB00010AEBD4
:1000CA0064074A70EFC3E5249488E5239413400D2E
:1000DA00E5249458E523941B5003E4F590C3E524E2
:1000EA009458E523941B401EE52494E0E523942EBE
:1000FA005014E4FAFB9002901202600BBB00010A52
:10010A00EB64074A70EFC3E52494E0E523942E409C
:0E011A000DE52494B0E52394365003E4F590EF
:0101280022B4
:100236001202BD1202B31202A0C2A27580FEC2A1B2
:10024600E4F580F529F52A1200AA30010512020507
:0A025600C2013002F212012980ED0E
:0300000002001EDD
:0C001E00787FE4F6D8FD75814E02006585
:10002A00020236E493A3F8E493A34003F68001F2B4
:10003A0008DFF48029E493A3F85407240CC8C333D7
:10004A00C4540F4420C8834004F456800146F6DFA6
:10005A00E4800B010204081020408090000EE47E28
:10006A00019360BCA3FF543F30E509541FFEE4939B
:10007A00A360010ECF54C025E060A840B8E493A362
:10008A00FAE493A3F8E493A3C8C582C8CAC583CA8D
:10009A00F0A3C8C582C8CAC583CADFE9DEE780BE45
:01001A0000E5
:00000001FF
