:100280003F065B4F666D7D077F6FFEFCFDF9FBF35C
:0A029000F7F6F6F7F3FBF9FDFCFEAC
:10029A00023000000229000002230000022C0000A4
:0402AA00022E000020
:09023300E52D93F5907F057E0096
:10023C00D3EF9400EE940040147D6E7C00ED1D70A5
:0D024C00011CED4C70F7EF1F70E61E80E303
:010259002282
:03000B00020006EA
:030006000522329E
:03001B0002013CA3
:10013C00C0E0C0D0E524B4B00BE523B4360675237B
:10014C0000752400758DFC758B180531E531700236
:10015C0005300524E52470020523E52BB53106E4B2
:10016C00B53002C2B1E531640A45307006D2B1F542
:08017C0030F531D0D0D0E032A3
:0300030002018473
:09018400C0E0C0D075D000C0003D
:10018D00300029E522C3943F500AE522C394204054
:10019D000375210074322521F8A622752200052150
:1001AD00E521B4210CD2017521008005752200D204
:0101BD000041
:0701BE00D000D0D0D0E032E8
:0A000E00E4F58CF58AD2A9D28C2209
:1002AF00758912758DFC758B18E4F52BC2B1D2AB25
:0302BF00C28E22CA
:0702C200D288D2A8D2AF22BE
:1001C500E52724E8601E24BA60262452702C90028C
:1001D50081E493F580D28ED2B1752900752A017517
:1001E5002B028016900282E493F580752B05800A18
:0D01F500900283E493F580E4F52BC2022212
:100202007E01E4FD7C0174322EF8E6D394074003AC
:10021200430780ECC394085004EFC313FF0E0CBCD9
:1002220009E474252DF8A607E4FF0DBD04D6D20219
:0102320022A9
:10001E00E52A452970030200AFC3E5249488E52341
:10002E009413501CE4F52CF52D9002921202330518
:10003E002DE52D7002052CC39407E52C940040E9A4
:10004E00C3E5249488E5239413400DE5249458E5E4
:10005E0023941B5003E4F590C3E5249458E52394B0
:10006E001B4026E52494E0E523942E501CE4F52C49
:10007E00F52D90028A120233052DE52D7002052C06
:10008E00C39407E52C940040E9C3E52494E0E523EE
:10009E00942E400DE52494B0E52394365003E4F5F8
:0200AE0090229E
:10025A001202C212000E1202AFC2A27580FEC2A121
:10026A00E4F58012001E300105120202C2013002BA
:06027A00F21201C580ED47
:030000000200B04B
:0C00B000787FE4F6D8FD7581520200F75D
:1000BC0002025AE493A3F8E493A34003F68001F2FE
:1000CC0008DFF48029E493A3F85407240CC8C33345
:1000DC00C4540F4420C8834004F456800146F6DF14
:1000EC00E4800B010204081020408090029AE47E08
:1000FC00019360BCA3FF543F30E509541FFEE49309
:10010C00A360010ECF54C025E060A840B8E493A3CF
:10011C00FAE493A3F8E493A3C8C582C8CAC583CAFA
:10012C00F0A3C8C582C8CAC583CADFE9DEE780BEB2
:0102AE00004F
:00000001FF
